:020000040800F2
:1000000000000220D11F0008212000082120000844
:100010002120000821200008212000080000000005
:100020000000000000000000000000002120000887
:10003000212000080000000021200008D50300084E
:10004000212000082120000821200008212000088C
:10005000212000082120000821200008212000087C
:10006000212000082120000821200008212000086C
:10007000212000082120000821200008212000085C
:10008000DD020008BD020008DD080008212000088C
:10009000212000082120000821200008212000083C
:1000A000212000082120000821200008212000082C
:1000B000E104000821200008212000082120000878
:1000C000212000082120000821200008212000080C
:1000D0002120000821200008110300082120000829
:1000E0004D040008212000082120000821200008DC
:1000F00021200008212000082120000821200008DC
:1001000021200008212000082120000821200008CB
:1001100021200008212000082120000821200008BB
:1001200021200008212000082120000821200008AB
:10013000212000080000000000000000212000082D
:10014000212000082120000821200008212000088B
:10015000212000082120000821200008212000087B
:10016000212000082120000821200008212000086B
:1001700021200008212000082120000800000000A4
:100180000000000021200008000000000000000026
:1001900021200008000000000000000021200008CD
:1001A0000000000000000000000000002120000806
:1001B000212000082120000821200008212000081B
:0401C00021200008F2
:1002000010B5054C237833B9044B13B10448AFF350
:1002100000800123237010BDB809002000000000F9
:10022000E48C000808B5034B1BB103490348AFF346
:10023000008008BD00000000BC090020E48C00081C
:10024000A3F5803A704700BF174B002B08BF134B34
:100250009D46FFF7F5FF00218B460F461348144AD1
:10026000121A01F019FF0E4B002B00D098470D4BCE
:10027000002B00D098470020002104000D000D48FD
:10028000002802D00C4803F071FE01F0E1FE2000CE
:10029000290001F013FE01F0CBFE00BF00000800B2
:1002A000000000000000000000000000B80900206D
:1002B000680A00206D3F0008B5540008064B5A68D4
:1002C000920207D5DA6842F40012DA60DA6842F482
:1002D0007412DA60704700BF00600240074BDA68B2
:1002E00042F40062DA60DA6842F47462DA60D3F8E9
:1002F000882042F00102C3F8882070470060024065
:1003000010B50446C0B200F04FFA204610BD00BF41
:10031000044B1A68520603D51A6822F040021A608C
:10032000704700BF00440040204B1A6842F00102B1
:100330001A601A689207FCD51D4A5A605A681B4910
:1003400022F480025A609A6842F414429A601A6851
:1003500042F080721A600B689801FCD50B6C154A4C
:1003600043F080530B64136843F480331360536885
:10037000D903FCD513680F4943F4003313604B686D
:100380009B03FCD50C4B094A40F205711960936838
:1003900023F003039360936843F002039360936830
:1003A00003F00C03082BFAD1704700BF003802405D
:1003B000082D000200700040003C02404FF0E02396
:1003C000034900200722986159611A61704700BFF4
:1003D0001FBF0200044B1A6812B11A68013A1A6072
:1003E0005A6801325A607047F8090020024A1060CA
:1003F0001368002BFCD17047F8090020014B5868A6
:10040000704700BFF809002072B60C480C49426CD6
:100410000C4B42F4804242644A6942F020024A6135
:100420001A68094942F400521A60DA684FF4807081
:1004300042F40052DA60486062B670470038024009
:1004400000380140003C014000E100E0064B5A69E1
:10045000920408D55A69054942F400525A614B6921
:1004600083F020034B617047003C014000000240D4
:1004700010B472B6174A1848116841F480611160CF
:10048000016C41F001010164116A4FF0804341F4B5
:10049000801111621A6842F2273442F20F7022F082
:1004A000010200211A609C62D86259625A690B49A4
:1004B00042F001025A61DA6842F00102DA601A6819
:1004C0004FF0805042F001021A60086062B65DF899
:1004D000044B7047000002400038024000E100E099
:1004E0004FF080431A69D20708D51A69044922F0EF
:1004F00001021A614B6983F020034B61704700BF12
:10050000000002400E4A116A41F4801110B41162D9
:1005100011684FF0804341F4006111600020FF2416
:1005200060229862DC6258629A611A6A5DF8044B34
:1005300042F001021A621A6842F001021A60704722
:1005400000000240134A144B516A40F2111001435B
:100550005162116841F4281111601A6A02431A624B
:100560009A6942F060029A619A6942F4C0429A61C3
:10057000DA6942F06002DA615A6C002142F400420A
:10058000FF205A649962D86259621A6842F00102E7
:100590001A60704700000240000001400F4A116AD3
:1005A00041F4801110B4116211684FF0804341F49E
:1005B000006111605924602244F6206000219C6291
:1005C000D86259629A611A6A5DF8044B42F00102DE
:1005D0001A621A6842F001021A6070470000024075
:1005E0001249134B086B134A40F0010010B4086322
:1005F000086C40F400300864196A41F4E061196243
:10060000196840F2871441F0200119609460D368A2
:10061000094943F401536FF0400443F008034020BC
:10062000D36014605DF8044B4860704700380240A6
:10063000000002400044004000E100E0114A124B7B
:10064000106B124940F0010010B41063106C40F4BC
:10065000003010641A6842F080021A601A6A40F290
:10066000871442F4E0421A628C60CB68084A5DF855
:10067000044B43F4005343F024034020CB6050600C
:10068000704700BF003802400000024000440040B4
:1006900000E100E010B41F4C236B43F4001323630C
:1006A0001D4B4FF47464DC60D3F8884024F00104DF
:1006B000C3F88840D3F88840E407FBD4C3F890100F
:1006C000C3F89400C3F88C20D3F888201349144849
:1006D00042F00062C3F88820D3F8882042F4826296
:1006E00042F00602C3F88820D3F8882022F0C00226
:1006F000C3F88820D3F8882042F00102C3F888208C
:100700004B694FF4803443F040034B6104605DF863
:10071000044B704700380240006002400044004033
:1007200000E100E010B41C4C236B43F4001323637E
:100730001A4B4FF47414DC60D3F8A04024F0010489
:10074000C3F8A040D3F8A040E407FBD4C3F8A81036
:10075000C3F8AC00C3F8A420D3F8A0201049114876
:1007600042F00062C3F8A020D3F8A02042F48A62CD
:1007700042F00602C3F8A020D3F8A02042F0010204
:10078000C3F8A0204B694FF4003443F080034B6161
:1007900004605DF8044B704700380240006002407E
:1007A0000044004000E100E0024A13681B06FCD54B
:1007B00050607047004400402849294B0A6B294883
:1007C00042F0010210B40A631A6842F003021A6090
:1007D0001A6842F00C021A604A6C42F480724A6451
:1007E0004268A3F5604342F4403242605A6842F4E2
:1007F00080725A6098681C4A40F4E06040F0020041
:100800009860D86A40F48010D862586B40F020009D
:1008100058639868002440F0010098601C60986854
:1008200040F0804098600B6B43F480030B631369C6
:1008300023F0C0031361136943F4807313611369D8
:1008400043F48063136113695DF8044B43F4205350
:100850001361136923F0606313617047003802402D
:10086000000002400023014000640240044B5A6132
:100870009861D9611A6942F001021A61704700BF9C
:1008800000640240054B00221A609A6842F480120C
:100890009A609A6842F480029A6070470020014092
:1008A0000C4B0D495A6842F0010210B45A605A6864
:1008B00042F4000242F410725A6040F6B8344FF429
:1008C0007A704FF480225C6298625DF8044B0A6093
:1008D000704700BF0020014000E100E0054B1A68AE
:1008E000D20700D470471A68034822F001021A6048
:1008F00001F034BC002001409C8D0008EC91000800
:1009000000000020B8090020B8090020680A002073
:10091000034AD2F8883043F47003C2F88830704735
:1009200000ED00E0164A936803F00C03042B0CD092
:10093000082B0CD0134B124A134892681349C2F388
:100940000312825CD3400B607047114BF3E753688E
:10095000516813F4800F01F03F01536814BF0C4A33
:10096000084AB2FBF1F1064A5268C2F30142C3F3EE
:100970008813013201FB03F35200B3FBF2F3DAE711
:10098000003802400024F400248D000804000020F8
:1009900040787D01704700BF0120704708B501F025
:1009A00041FB162303604FF0FF3008BD08B501F08E
:1009B00039FB16230360FEE770B5161E07DD0C46F3
:1009C0008D19AFF3008004F8010BA542F9D1304630
:1009D00070BD00BF70B5161E07DD0C468D1914F8EA
:1009E000010BFFF78DFCA542F9D1304670BD00BF69
:1009F0004FF0FF30704700BF4FF400534B600020B2
:100A0000704700BF01207047002070470EB44FF0C0
:100A1000FF3003B0704700BF08B501F003FB0A23A5
:100A200003604FF0FF3008BD08B501F0FBFA022368
:100A300003604FF0FF3008BD4FF0FF30704700BF3C
:100A40004FF400534B600020704700BF08B501F021
:100A5000E9FA1F2303604FF0FF3008BD08B501F02D
:100A6000E1FA0B2303604FF0FF3008BD08B501F039
:100A7000D9FA0C2303604FF0FF3008BD00000000DE
:100A800001F0FF01102A2BDB10F0070F08D010F83F
:100A9000013B013A8B422DD010F0070F42B3F6D143
:100AA000F0B441EA012141EA014122F007047FF05C
:100AB00000070023F0E80256083C85EA010586EAB3
:100AC000010685FA47F5A3FA87F586FA47F6A5FAEF
:100AD00087F68EB9EED1F0BC01F0FF0102F00702FB
:100AE00032B110F8013B013A83EA010313B1F8D1A6
:100AF0000020704701387047002D06BF3546033887
:100B0000073815F0010F07D1013015F4807F02BFBF
:100B1000013015F4C03F0130F0BC0138704700BF10
:100B2000844641EA000313F003036DD1403A41D3F8
:100B300051F8043B40F8043B51F8043B40F8043BB7
:100B400051F8043B40F8043B51F8043B40F8043BA7
:100B500051F8043B40F8043B51F8043B40F8043B97
:100B600051F8043B40F8043B51F8043B40F8043B87
:100B700051F8043B40F8043B51F8043B40F8043B77
:100B800051F8043B40F8043B51F8043B40F8043B67
:100B900051F8043B40F8043B51F8043B40F8043B57
:100BA00051F8043B40F8043B51F8043B40F8043B47
:100BB000403ABDD2303211D351F8043B40F8043BE7
:100BC00051F8043B40F8043B51F8043B40F8043B27
:100BD00051F8043B40F8043B103AEDD20C3205D3F7
:100BE00051F8043B40F8043B043AF9D2043208D0EF
:100BF000D2071CBF11F8013B00F8013B01D30B8861
:100C000003806046704700BF082A13D38B078DD03E
:100C100010F003038AD0C3F10403D21ADB071CBF10
:100C200011F8013B00F8013B80D331F8023B20F87A
:100C3000023B7BE7043AD9D3013A11F8013B00F8B3
:100C4000013BF9D20B7803704B7843708B7883703B
:100C50006046704700000000000000000000000037
:100C60000000000000000000000000000000000084
:100C70000000000000000000000000000000000074
:100C800090F800F06DE9024520F007016FF0000CCC
:100C900010F0070491F820F040F049804FF0000474
:100CA0006FF00700D1E9002391F840F000F108004F
:100CB00082FA4CF2A4FA8CF283FA4CF3A2FA8CF387
:100CC0004BBBD1E9022382FA4CF200F10800A4FAEE
:100CD0008CF283FA4CF3A2FA8CF3E3B9D1E9042342
:100CE00082FA4CF200F10800A4FA8CF283FA4CF379
:100CF000A2FA8CF37BB9D1E9062301F1200182FA33
:100D00004CF200F10800A4FA8CF283FA4CF3A2FA38
:100D10008CF3002BC6D0002A04BF04301A4612BA46
:100D2000B2FA82F2FDE8024500EBD2007047D1E949
:100D3000002304F00305C4F100004FEAC50514F0D8
:100D4000040F91F840F00CFA05F562EA05021CBFA9
:100D500063EA050362464FF00004A9E700000000C3
:100D6000A2EB0300704700BF02780B78012A28BF6E
:100D70009A42F5D16DE9044540EA0104CDE90267E4
:100D80006FF0000C4FEA447212B380EA010414F0D1
:100D9000070F6AD100F0070420F0070004F00305F4
:100DA00021F007014FEAC505F0E8042314F0040F11
:100DB000F1E804670CFA05F462EA040266EA040644
:100DC0000AD063EA0403624667EA0407664603E062
:100DD000F0E80423F1E8046782FA4CF582EA06049D
:100DE000A4FA8CF46CBB83FA4CF583EA0705A5FAE8
:100DF0008CF595B950E9022351E9026782FA4CF566
:100E000082EA0604A4FA8CF483FA4CF583EA070517
:100E1000A5FA8CF52543DBD09CB92DBAB5FA85F43B
:100E200024F0070427FA04F1DDE9026723FA04F34A
:100E300003F0FF0001F0FF01FDE80445A0EB010015
:100E4000704724BAB4FA84F424F0070426FA04F1B3
:100E5000DDE9026722FA04F202F0FF0001F0FF016F
:100E6000FDE80445A0EB0100704714F0030F3CD1EE
:100E700010F0030428D150F8082B51F8083B82FAEF
:100E80004CF582EA0305A5FA8CF55DB950F8042CFF
:100E900051F8043C82FA4CF582EA0305A5FA8CF578
:100EA000002DE8D02DBAB5FA85F424F0070423FA12
:100EB00004F122FA04F202F0FF0001F0FF01FDE864
:100EC0000445A0EB010070474FEAC40420F0030082
:100ED00050F8082B21F0030151F8083B0CFA04F4F8
:100EE00062EA040263EA0403C9E710F003041AD0BB
:100EF000A1EB040120F00300E40750F8042B06D016
:100F00000FD28B785FFAA2F4E41A06D12BB1CB781A
:100F10005FFAB2F4E41A00D11BB920465DF8104B19
:100F2000704701F1040150F8042BCC0721F00301B4
:100F300051F8043B48D824D222F07F4482FA4CF581
:100F400094EA1325A5FA8CF50AD165B951F8043B4A
:100F500084EA0204B4EB036F0ED150F8042BEBE7E4
:100F60004FEA132355E035F07F454DD10878FDE871
:100F70000445C0F1000070474FEA126203F0FF031E
:100F800047E002EA1C4482FA4CF594EA1345A5FABC
:100F90008CF50AD165B951F8043B84EA0204B4EB3C
:100FA000034F0CD150F8042BEBE74FEA134330E02A
:100FB00015EA1C4528D10B884FEA124229E04FEA76
:100FC000124203EA1C4324E002F0FF0482FA4CF5CB
:100FD00094EA1365A5FA8CF50AD165B951F8043B7A
:100FE00084EA0204B4EB032F09D150F8042BEBE799
:100FF0004FEA13630DE015F0FF0F05D10B684FEAC0
:10100000122223F07F4304E04FF00000FDE8044586
:10101000704712BA1BBA82FA4CF482EA0304A4FAAB
:101020008CF5B5FA85F402FA04F203FA04F34FEAF8
:101030001260FDE80445A0EB1360704770B54FF0F7
:10104000FF0C4CF4E06C1CEA11541DBF1CEA135554
:1010500094EA0C0F95EA0C0F00F0DEF82C4481EABC
:10106000030621EA4C5123EA4C5350EA013518BFDC
:1010700052EA033541F4801143F4801338D0A0FBC9
:1010800002CE4FF00005E1FB02E506F00042E0FB76
:1010900003E54FF00006E1FB03569CF0000F18BF7C
:1010A0004EF0010EA4F1FF04B6F5007F64F5407424
:1010B00004D25FEA4E0E6D4146EB060642EAC621B7
:1010C00041EA55514FEAC52040EA5E504FEACE2E24
:1010D000B4F1FD0C88BFBCF5E06F1ED8BEF1004F27
:1010E00008BF5FEA500E50F1000041EB045170BDA3
:1010F00006F0004646EA010140EA020081EA0301E7
:10110000B4EB5C04C2BFD4EB0C0541EA045170BDE2
:1011100041F480114FF0000E013C00F3AB8014F15C
:10112000360FDEBF002001F0004170BDC4F10004A5
:10113000203C35DA0C341BDC04F11404C4F1200526
:1011400000FA05F320FA04F001FA05F240EA020081
:1011500001F0004221F0004110EBD37021FA04F6B7
:1011600042EB06015EEA430E08BF20EAD37070BD71
:10117000C4F10C04C4F1200500FA04F320FA05F0D0
:1011800001FA04F240EA020001F0004110EBD370D2
:1011900041F100015EEA430E08BF20EAD37070BD42
:1011A000C4F1200500FA05F24EEA020E20FA04F31B
:1011B00001FA05F243EA020321FA04F001F00041CA
:1011C00021FA04F220EA020000EBD3705EEA430E3B
:1011D00008BF20EAD37070BD94F0000F0FD101F06A
:1011E0000046400041EB010111F4801F08BF013CA3
:1011F000F7D041EA060195F0000F18BF704703F0E1
:101200000046520043EB030313F4801F08BF013D67
:10121000F7D043EA0603704794EA0C0F0CEA135523
:1012200018BF95EA0C0F0CD050EA410618BF52EADD
:101230004306D1D181EA030101F000414FF00000E3
:1012400070BD50EA410606BF1046194652EA4306F1
:1012500019D094EA0C0F02D150EA013613D195EA65
:101260000C0F05D152EA03361CBF104619460AD1AD
:1012700081EA030101F0004141F0FE4141F47001B7
:101280004FF0000070BD41F0FE4141F4780170BDA7
:1012900081F0004102E000BF83F0004330B54FEA27
:1012A00041044FEA430594EA050F08BF90EA020F94
:1012B0001FBF54EA000C55EA020C7FEA645C7FEA27
:1012C000655C00F0E2804FEA5454D4EB5555B8BF4A
:1012D0006D420CDD2C4480EA020281EA030382EABB
:1012E000000083EA010180EA020281EA0303362D4D
:1012F00088BF30BD11F0004F4FEA01314FF4801C20
:101300004CEA113102D0404261EB410113F0004F31
:101310004FEA03334CEA133302D0524263EB4303E8
:1013200094EA050F00F0A780A4F10104D5F1200E86
:101330000DDB02FA0EFC22FA05F2801841F10001E1
:1013400003FA0EF2801843FA05F359410EE0A5F1B5
:1013500020050EF1200E012A03FA0EFC28BF4CF0E6
:10136000020C43FA05F3C01851EBE37101F000459C
:1013700007D54FF0000EDCF1000C7EEB00006EEBA9
:101380000101B1F5801F1BD3B1F5001F0CD3490833
:101390005FEA30004FEA3C0C04F101044FEA44528A
:1013A00012F5800F80F09A80BCF1004F08BF5FEA11
:1013B000500C50F1000041EB045141EA050130BDF1
:1013C0005FEA4C0C404141EB0101013C28BFB1F503
:1013D000801FE9D291F0000F04BF01460020B1FA4E
:1013E00081F308BF2033A3F10B03B3F120020CDA21
:1013F0000C3208DD02F1140CC2F10C0201FA0CF0FF
:1014000021FA02F10CE002F11402D8BFC2F1200C63
:1014100001FA02F120FA0CFCDCBF41EA0C01904019
:10142000E41AA2BF01EB0451294330BD6FEA040462
:101430001F3C1CDA0C340EDC04F11404C4F120024D
:1014400020FA04F001FA02F340EA030021FA04F35F
:1014500045EA030130BDC4F10C04C4F1200220FAB6
:1014600002F001FA04F340EA0300294630BD21FAF4
:1014700004F0294630BD94F0000F83F4801306BFBA
:1014800081F480110134013D4EE77FEA645C18BFAE
:101490007FEA655C29D094EA050F08BF90EA020F45
:1014A00005D054EA000C04BF1946104630BD91EA3D
:1014B000030F1EBF0021002030BD5FEA545C05D140
:1014C0004000494128BF41F0004130BD14F580047F
:1014D0003CBF01F5801130BD01F0004545F0FE41F3
:1014E00041F470014FF0000030BD7FEA645C1ABF28
:1014F000194610467FEA655C1CBF0B46024650EA5F
:10150000013406BF52EA033591EA030F41F400218A
:1015100030BD00BF90F0000F04BF0021704730B510
:101520004FF4806404F132044FF000054FF00001E5
:1015300050E700BF90F0000F04BF0021704730B5A6
:101540004FF4806404F1320410F0004548BF40427B
:101550004FF000013EE700BF42004FEAE2014FEAD0
:1015600031014FEA02701FBF12F07F4393F07F4FAB
:1015700081F06051704732F07F4208BF704793F0AE
:101580007F4F04BF41F40021704730B54FF46074C1
:1015900001F0004521F000411CE700BF50EA0102C4
:1015A00008BF704730B54FF000050AE050EA01026D
:1015B00008BF704730B511F0004502D5404261EBDD
:1015C00041014FF4806404F132045FEA915C3FF41E
:1015D000D8AE4FF003025FEADC0C18BF03325FEABB
:1015E000DC0C18BF033202EBDC02C2F1200300FA6C
:1015F00003FC20FA02F001FA03FE40EA0E0021FA91
:1016000002F11444BDE600BF70B54FF0FF0C4CF47E
:10161000E06C1CEA11541DBF1CEA135594EA0C0F30
:1016200095EA0C0F00F0DEF82C4481EA030621EA6B
:101630004C5123EA4C5350EA013518BF52EA0335A6
:1016400041F4801143F4801338D0A0FB02CE4FF058
:101650000005E1FB02E506F00042E0FB03E54FF088
:101660000006E1FB03569CF0000F18BF4EF0010E80
:10167000A4F1FF04B6F5007F64F5407404D25FEA7C
:101680004E0E6D4146EB060642EAC62141EA55512F
:101690004FEAC52040EA5E504FEACE2EB4F1FD0C71
:1016A00088BFBCF5E06F1ED8BEF1004F08BF5FEAEF
:1016B000500E50F1000041EB045170BD06F00046A1
:1016C00046EA010140EA020081EA0301B4EB5C044E
:1016D000C2BFD4EB0C0541EA045170BD41F4801146
:1016E0004FF0000E013C00F3AB8014F1360FDEBF6B
:1016F000002001F0004170BDC4F10004203C35DA47
:101700000C341BDC04F11404C4F1200500FA05F3C9
:1017100020FA04F001FA05F240EA020001F000426A
:1017200021F0004110EBD37021FA04F642EB0601E0
:101730005EEA430E08BF20EAD37070BDC4F10C040A
:10174000C4F1200500FA04F320FA05F001FA04F2CE
:1017500040EA020001F0004110EBD37041F10001BA
:101760005EEA430E08BF20EAD37070BDC4F12005C5
:1017700000FA05F24EEA020E20FA04F301FA05F22D
:1017800043EA020321FA04F001F0004121FA04F2D5
:1017900020EA020000EBD3705EEA430E08BF20EAA5
:1017A000D37070BD94F0000F0FD101F000464000DF
:1017B00041EB010111F4801F08BF013CF7D041EA61
:1017C000060195F0000F18BF704703F00046520065
:1017D00043EB030313F4801F08BF013DF7D043EA36
:1017E0000603704794EA0C0F0CEA135518BF95EAEC
:1017F0000C0F0CD050EA410618BF52EA4306D1D173
:1018000081EA030101F000414FF0000070BD50EA91
:10181000410606BF1046194652EA430619D094EA1B
:101820000C0F02D150EA013613D195EA0C0F05D105
:1018300052EA03361CBF104619460AD181EA030159
:1018400001F0004141F0FE4141F470014FF0000011
:1018500070BD41F0FE4141F4780170BD70B54FF0AC
:10186000FF0C4CF4E06C1CEA11541DBF1CEA13552C
:1018700094EA0C0F95EA0C0F00F0A7F8A4EB05040E
:1018800081EA030E52EA03354FEA013100F0888005
:101890004FEA03334FF0805545EA131343EA1263CE
:1018A0004FEA022245EA111545EA10654FEA002683
:1018B0000EF000419D4208BF964244F1FD0404F53C
:1018C000407402D25B084FEA3202B61A65EB030598
:1018D0005B084FEA32024FF480104FF4002CB6EB55
:1018E000020E75EB030E22BFB61A754640EA0C00D5
:1018F0005B084FEA3202B6EB020E75EB030E22BF15
:10190000B61A754640EA5C005B084FEA3202B6EB55
:10191000020E75EB030E22BFB61A754640EA9C0014
:101920005B084FEA3202B6EB020E75EB030E22BFE4
:10193000B61A754640EADC0055EA060E18D04FEAA2
:10194000051545EA16754FEA06164FEAC30343EA42
:1019500052734FEAC2025FEA1C1CC0D111F4801F0F
:101960000BD141EA00014FF000004FF0004CB6E708
:1019700011F4801F04BF01430020B4F1FD0C88BFA7
:10198000BCF5E06F3FF6AFAEB5EB030C04BFB6EBB2
:10199000020C5FEA500C50F1000041EB045170BDA5
:1019A0000EF0004E4EEA113114EB5C04C2BFD4EBD2
:1019B0000C0541EA045170BD41F480114FF0000E56
:1019C000013C90E645EA060E8DE60CEA135594EAD2
:1019D0000C0F08BF95EA0C0F3FF43BAF94EA0C0FD5
:1019E0000AD150EA01347FF434AF95EA0C0F7FF44A
:1019F00025AF104619462CE795EA0C0F06D152EA9E
:101A000003353FF4FDAE1046194622E750EA410681
:101A100018BF52EA43067FF4C5AE50EA41047FF492
:101A20000DAF52EA43057FF4EBAE12E74FF0FF3CF7
:101A300006E000BF4FF0010C02E000BF4FF0010CC8
:101A40004DF804CD4FEA410C7FEA6C5C4FEA430C41
:101A500018BF7FEA6C5C1BD001B050EA410C0CBF90
:101A600052EA430C91EA030F02BF90EA020F0020F2
:101A7000704710F1000F91EA030F58BF994208BF59
:101A800090422CBFD8176FEAE37040F00100704716
:101A90004FEA410C7FEA6C5C02D150EA013C07D16D
:101AA0004FEA430C7FEA6C5CD6D152EA033CD3D0B8
:101AB0005DF8040B704700BF8446104662468C46B2
:101AC0001946634600E000BF01B5FFF7B7FF0028E5
:101AD00048BF10F1000F01BD4DF808EDFFF7F4FF0E
:101AE0000CBF012000205DF808FB00BF4DF808ED99
:101AF000FFF7EAFF34BF012000205DF808FB00BFBC
:101B00004DF808EDFFF7E0FF94BF012000205DF8DD
:101B100008FB00BF4DF808EDFFF7CEFF94BF012092
:101B200000205DF808FB00BF4DF808EDFFF7C4FF8B
:101B300034BF012000205DF808FB00BF4FEA410CD4
:101B40007FEA6C5C02D150EA013C0AD14FEA430CB7
:101B50007FEA6C5C02D152EA033C02D14FF00000F4
:101B600070474FF0010070474FEA410212F5001232
:101B700015D211D56FF47873B3EB625212D94FEAD4
:101B8000C12343F0004343EA505311F0004F23FABE
:101B900002F018BF404270474FF00000704750EA13
:101BA000013005D111F0004008BF6FF000407047D0
:101BB0004FF00000704700BF53B94AB9002908BF71
:101BC00000281CBF4FF0FF314FF0FF3000F074B918
:101BD000ADF1080C6DE904CE00F006F8DDF804E084
:101BE000DDE9022304B070472DE9F047089D044663
:101BF0008E46002B4DD18A42944669D9B2FA82F2C0
:101C000052B101FA02F3C2F1200120FA01F10CFAFB
:101C100002FC41EA030E94404FEA1C48210CBEFB33
:101C2000F8F61FFA8CF708FB16E341EA034306FBBC
:101C300007F199420AD91CEB030306F1FF3080F04B
:101C40001F81994240F21C81023E63445B1AA4B298
:101C5000B3FBF8F008FB103344EA034400FB07F73A
:101C6000A7420AD91CEB040400F1FF3380F00A817B
:101C7000A74240F207816444023840EA0640E41B70
:101C800000261DB1D4400023C5E900433146BDE81C
:101C9000F0878B4209D9002D00F0EF800026C5E9BE
:101CA000000130463146BDE8F087B3FA83F6002ED6
:101CB0004AD18B4202D3824200F2F980841A61EB4E
:101CC000030301209E46002DE0D0C5E9004EDDE76C
:101CD00002B9FFDEB2FA82F2002A40F09280A1EB54
:101CE0000C014FEA1C471FFA8CFE0126200CB1FBA9
:101CF000F7F307FB131140EA01410EFB03F08842A2
:101D000008D91CEB010103F1FF3802D2884200F22E
:101D1000CB804346091AA4B2B1FBF7F007FB1011C0
:101D200044EA01440EFB00FEA64508D91CEB04045E
:101D300000F1FF3102D2A64500F2BB800846A4EBB9
:101D40000E0440EA03409CE7C6F12007B34022FAA4
:101D500007FC4CEA030C20FA07F401FA06F31C43D3
:101D6000F9404FEA1C4900FA06F3B1FBF9F8200CE0
:101D70001FFA8CFE09FB181140EA014108FB0EF026
:101D8000884202FA06F20BD91CEB010108F1FF3A76
:101D900080F08880884240F28580A8F10208614482
:101DA000091AA4B2B1FBF9F009FB101144EA014190
:101DB00000FB0EFE8E4508D91CEB010100F1FF343B
:101DC0006CD28E456AD90238614440EA0840A0FBD3
:101DD0000294A1EB0E01A142C846A64656D353D0A9
:101DE0005DB1B3EB080261EB0E0101FA07F722FACD
:101DF00006F3F1401F43C5E9007100263146BDE8F6
:101E0000F087C2F12003D8400CFA02FC21FA03F358
:101E1000914001434FEA1C471FFA8CFEB3FBF7F0D9
:101E200007FB10360B0C43EA064300FB0EF69E42FE
:101E300004FA02F408D91CEB030300F1FF382FD297
:101E40009E422DD9023863449B1B89B2B3FBF7F63F
:101E500007FB163341EA034106FB0EF38B4208D918
:101E60001CEB010106F1FF3816D28B4214D9023E59
:101E70006144C91A46EA004638E72E46284605E777
:101E80000646E3E61846F8E64B45A9D2B9EB020848
:101E900064EB0C0E0138A3E74646EAE7204694E7D8
:101EA0004046D1E7D0467BE7023B614432E730460B
:101EB00009E76444023842E7704700BF2DE9F04F5C
:101EC0003C4DDFF808E13C4E0FCD91B008AC0FC49B
:101ED00095E80F0007C424F8023B1A0C2270BEE8F4
:101EE0000F000DF10409CC46ACE80F009EE8070096
:101EF000ACE803000DF120088CF80020FEF714FA7E
:101F0000FEF75CFAFEF76CFB2C492D4C1F22404675
:101F1000FEF708FCFEF792FB284914223046FEF734
:101F2000B9FB2849284A0B6B43F001030B63136884
:101F300043F480630025771C13604FF4FA70FEF7BA
:101F400055FA95F0010515BF1F231923C4F8AC807D
:101F5000C4F8AC903246C4F8A430002302E0013348
:101F6000142B22D012F8011B0A29F8D1D4F88820AA
:101F7000142122F00102C4F88820C4F88C10D4F88F
:101F8000882042F0010207EB030BC4F88820B24618
:101F90001AF8010BFEF708FCDA45F9D1D4F8A030A5
:101FA00043F00103C4F8A030C7E73078FEF7FCFB2C
:101FB000F4E700BF608D0008D4090020044400400D
:101FC000006002400038024000000240808D00089E
:101FD000DFF834D00D480E490E4A002302E0D458F1
:101FE000C4500433C4188C42F9D30B4A0B4C002361
:101FF00001E013600432A242FBD3FEF789FC00F03B
:1020000027F8FFF75BFF7047000002200000002068
:10201000B8090020EC910008B8090020680A0020E7
:10202000FEE70000014B1868704700BF0C0000205D
:1020300008B50021044601F033FF044B1868C36B58
:1020400003B198472046FEF7B1FC00BFB08D0008F1
:1020500070B50D4E0D4D761BB61006D0002455F808
:10206000043B01349847A642F9D1094E094D761B2D
:1020700006F03AFEB61006D0002455F8043B0134B1
:102080009847A642F9D170BDE0910008E0910008A0
:10209000E8910008E0910008830730B548D0541E4D
:1020A000002A3FD0CAB2034601E0013C3AD303F80C
:1020B000012B9D07F9D1032C2DD9CDB245EA052579
:1020C0000F2C45EA054536D9A4F1100222F00F0C79
:1020D00003F1200EE6444FEA121C03F1100242E91C
:1020E000045542E9025510327245F8D10CF1010253
:1020F00014F00C0F03EB021204F00F0C13D0ACF130
:10210000040323F003030433134442F8045B9342B3
:10211000FBD10CF003042CB1CAB21C4403F8012B10
:102120009C42FBD130BD64461346002CF4D1F9E744
:1021300003461446BFE71A46A446E0E70EB400B5CE
:1021400082B003AB816853F8042B019300F01CF8B4
:1021500002B05DF804EB03B0704700BF0FB400B5E8
:10216000074983B004AB086853F8042B81680193D6
:1021700000F00AF803B05DF804EB04B0704700BF4C
:102180000C000020000000002DE9F04F2DED0A8B1F
:10219000CFB01C460AEE101A91460AEE900A054688
:1021A00003F03AFB0368139318460994FEF768FDA1
:1021B00012901DB1AB6B002B00F048821AEE102A72
:1021C000536EDB0740F14781B2F90C309AB29604A6
:1021D00009D41AEE101A43F400538B819AB24B6E55
:1021E00023F400534B66150740F1CC801AEE103AE9
:1021F0001B69002B00F0C68002F01A030A2B00F0C6
:10220000D2804D469FED9C7B2B78002425AACDE9FA
:102210002344CDE91544CDE917448DED107B1AEE2A
:10222000909A0E942292904614940694002B00F0FB
:10223000B081AB4604E01BF8013F002B00F0CD80DD
:10224000252BF8D1BBEB050640F0CB809BF8003086
:10225000002B00F09E8100234FF0FF329BF80170AD
:102260008DF86B3005930BF1010B04929A462B24E9
:1022700020210BF1010BA7F120035A2B00F2008162
:10228000DFE813F00B03FE00FE000603FE00FE0075
:10229000FE006A00FE00FE0077029F02FE0082023E
:1022A000A902FE00A4025B005B005B005B005B0018
:1022B0005B005B005B005B00FE00FE00FE00FE00BA
:1022C000FE00FE00FE008E01FE001602ED018E01F2
:1022D0008E018E01FE00FE00FE00FE000103FE00E6
:1022E000FE004502FE00FE00FE002002FE00C302CA
:1022F000FE00FE009D07FE00FE00FE00FE00FE0048
:10230000FE00FE00FE008E01FE001602EF018E01AF
:102310008E018E01E702EF01E801FE00F402FE00EB
:1023200087024702D502E801FE0020027D007907FE
:10233000FE00FE007D07FE007D00A7F130030022B5
:102340001BF8017B02EB820203EB4202A7F1300390
:10235000092BF5D905928EE7484603F05DFA4368EC
:1023600017931846FEF78CFC18900646484603F073
:1023700053FA836815932021002E40F0ED869BF8D8
:10238000007076E71AEE101A1AEE900A1AEE105A3A
:1023900001F012FD002841F02983AA8902F01A03F6
:1023A0000A2B7FF42EAF1AEE101AB1F90E30002B63
:1023B000FFF627AF4B6ED90702D4920541F15C813D
:1023C0001AEE101A1AEE900A23464A464FB0BDEC98
:1023D0000A8BBDE8F04F01F0AFBCBBEB050600F087
:1023E000D880249B33442493239B0133072BC8E9D3
:1023F0000056239305DC08F10808069B3344069336
:1024000024E71AEE101A22AA484604F0C9FB90B934
:102410000DF19408F1E71AEE101A22AA484604F0CA
:10242000BFFB002800F0A680089B23B11AEE900A9B
:10243000194603F0A5F81AEE102A536ED80740F19A
:10244000FA8093895A0601F1DA8206984FB0BDEC02
:102450000A8BBDE8F08FB2F90C309F059AB23FF5B8
:10246000B6AE1AEE105AA86D03F0E8F9B5F90C30C3
:102470009AB2ACE6AFF3008000000000000000005C
:10248000002F00F0868000238DF8D4708DF86B301B
:102490000122CDE90723039204930C930F930D932C
:1024A00035AD1AF002020A9202D0039A0232039268
:1024B0001AF084020B9205D1059A0399561A002E40
:1024C00000F36A83249C8BB1239B0DF16B020133D3
:1024D0000134C8F80020072B4FF001022494239305
:1024E000C8F8042000F3A18308F108080A9B83B10F
:1024F000239B1BAA01330234C8F80020072B4FF09E
:10250000020224942393C8F8042000F39B8308F16B
:1025100008080B9B802B00F06C82049B079A9E1A84
:10252000002E00F3AD821AF4807F40F00882079BF2
:10253000C8F804301C44239BC8F800500133072B13
:102540002494239300F31B8308F108081AF0040F66
:1025500005D0059B039A9D1A002D00F38783DDE9C2
:10256000052303998A42ACBF9B185B180693002C85
:102570007FF451AF00232393089B1BB10899484671
:1025800002F0FEFF0DF194085D462B78002B7FF4DE
:1025900050AE249B002B41F01D82002323934AE779
:1025A000099B073323F00703B3EC027B8DED107B0F
:1025B000DDE91012099322F000430BEE101A0BEE26
:1025C000903A4FF0FF32B0EE4B9AF0EE6B9AB84B68
:1025D00051EC190BFFF7B2FA002840F0EC84B44B31
:1025E00051EC190B4FF0FF32FFF78AFA002840F048
:1025F000E284DDE9100100220023FFF777FA0028CA
:1026000040F069879DF86B30AA4DAB4A2AF0800AEA
:102610000321472FC8BF1546002208920391079156
:1026200004920C920F920D92002B3FF43AAF039A52
:102630000132039235E7938999053FF503AF1AEE0E
:10264000104A906D03F002F9A389FBE6284602F0D8
:102650000BFEB3E59BF800704AF0200A09E64AF049
:10266000100A1AF0200F099B00F04484073323F06E
:1026700007031A465B6852F8084B09921E46002B66
:10268000C0F24784049B013300F0BE822AF080032D
:10269000039354EA060340F0B982049B002B40F0F8
:1026A000BA82DDF80CA00023049307934EAD21E11C
:1026B000099A002352F8041B8DF86B308DF8D41062
:1026C0000992E5E6099C049A54F8045B00268DF80B
:1026D0006B60002D00F092851346013300F05286A6
:1026E00031462846FEF7CCF90890002801F03181E8
:1026F000089B0496591B079121EAE1719DF86B3004
:102700000994039108960C960F960D968CE74AF063
:10271000100A1AF0200600F0CD83099B073323F03E
:1027200007035E6853F8084B09932AF48063039308
:10273000002300228DF86B20049A1146013100F02D
:10274000C180039921F0800A54EA060140F0B88064
:10275000002A40F00886002BA5D1039B13F001034B
:10276000079300F0178430238DF837310DF23715B9
:10277000C0E0099B53F8042B0592002A80F2D8830D
:10278000059A0993524205929BF800704AF0040A98
:102790006FE51AF0200F40F0D4841AF0100F40F0CB
:1027A000E8851AF0400F40F0AA861AF4007F00F086
:1027B000E085099B069953F8042B099311705D4637
:1027C000E3E69BF800708DF86B4052E59BF80070D3
:1027D0004AF0800A4DE55A4612F8017B2A2F01F093
:1027E0007082A7F13003092B934698BF002201F2B3
:1027F000ED801BF8017B02EB820203EB4202A7F1A2
:102800003003092BF5D9049235E54AF01003039300
:10281000039B13F0200600F05C83099B073323F031
:1028200007035E6853F8084B0993012381E7099B6E
:1028300053F8044B099330234AF0020278278DF8AD
:102840006C301E4B149303928DF86D70002602239A
:102850006FE79BF80070682F03BF9BF801704AF484
:10286000007A0BF1010B4AF0400A02E59BF8007078
:102870006C2F03BF9BF801704AF0200A0BF1010B8B
:102880004AF0100AF5E49BF800704AF0080AF0E4F8
:102890009BF800704AF0010AEBE49DF86B30002BC6
:1028A0007FF46DAD9BF800708DF86B10E1E400BF14
:1028B000FFFFEF7FB48D0008B88D0008C48D0008BD
:1028C000CDF80CA0012B00F0A181022B4EAD20D140
:1028D000149A04F00F032409D35C05F8013D44EA7F
:1028E0000674360954EA0603F3D14EAB5B1BDDF8E0
:1028F0000CA00793049907989DF86B3081424FF024
:102900000002B8BF0146089203910C920F920D92FB
:102910008AE604F00703E40844EA4674F608303314
:1029200054EA06012A4605F8013DF2D10399CC0785
:1029300000F177824EAB5B1B8A460793DAE7652F7F
:1029400040F3D780DDE9100100220023FFF7C4F82F
:10295000002800F0C681239BC14AC8F8002001333B
:1029600001340122072B24942393C8F8042000F398
:10297000DE8408F108081C9B0E9A934280F2D382F1
:10298000129B139A1C44C8E90023239B249401330F
:10299000072B239300F3248408F108080E9B5D1E87
:1029A000002D7FF7D3AD102D239B41F36981AD4FEF
:1029B0000A97224610261AEE104A05E008F1080888
:1029C000103D102D40F3C18401331032072BC8E9AC
:1029D0000076CDE92332F1DD22AA2146484604F0F3
:1029E000DFF800287FF420ADDDE923320DF19408F3
:1029F000E6E7059B039A9E1A002E7FF78EAD102EF8
:102A0000239B41F33F8097490B9522461AEE105ABB
:102A10000A910C4604E0103E102E08F1080819DD5A
:102A2000013310321021072BCDE92332C8F80040C2
:102A3000C8F80410EFDD22AA294648460DF1940893
:102A400004F0AEF800287FF4EFAC103E102EDDE964
:102A50002332E5DC0B9D144601330A9AC8F80020A6
:102A60003444072BCDE92334C8F8046000F3AA836B
:102A7000049B079A9E1A002E08F108087FF753ADB1
:102A8000102E239B40F30F8576480A90214642463C
:102A900004461AEE108A04E0103E102E02F10802DD
:102AA00016DD013310311020072BCDE923311460DE
:102AB0005060F1DD22AA4146484604F071F8002832
:102AC0007FF4B2AC103E102EDDE9233125AAE8DCFC
:102AD0000C46904601330A9AC8F800203444072B6C
:102AE000CDE92334C8F8046000F3D68108F1080862
:102AF00019E50E9B012B40F37581239EC8F8005009
:102B0000013601340123072E24942396C8F804309B
:102B100000F3968308F10808129B139A01361C44AF
:102B2000072EC8E90023CDE9236400F3978308F159
:102B30000808DDE9100100220023FEF7CDFF002880
:102B400040F07D810E9B0136013B01351C44072E70
:102B5000C8F800502396C8F80430249400F3538139
:102B600008F10808169BC8F8043001361C44072EEB
:102B70001EABCDE92364C8F800307FF7E5AC1AEE50
:102B8000101A22AA484604F00BF800287FF44CAC37
:102B9000249C0DF19408D9E4102EDDE9233222DDC6
:102BA000199510241AEE105A04E0103E102E08F168
:102BB000080817DD01332C491032072BC8E900142F
:102BC000CDE92332F1DD22AA294648460DF19408C9
:102BD00003F0E6FF00287FF427AC103E102EDDE95D
:102BE0002332E7DC199DC8F804600133B418072BC1
:102BF0001D4AC8F80020CDE9233400F37D839DF8F9
:102C00006B3008F108085EE4CDF80CA00A2C76F1D0
:102C1000000380F0318330340123DDF80CA08DF8FF
:102C2000374107930DF2371564E61AEE101A22AAFF
:102C3000484603F0B5FF00287FF4F6AB249C0DF165
:102C4000940853E41AEE101A22AA484603F0A8FF8B
:102C500000287FF4E9AB249C0DF1940859E400BFEF
:102C6000F48D0008088E0008F88D0008102D239BB5
:102C700020DD1AEE107A102604E0103D102D08F128
:102C8000080817DD0133AD4A1034072BC8E90026C8
:102C9000CDE92334F1DD22AA394648460DF19408E6
:102CA00003F07EFF00287FF4BFAB103D102DDDE95F
:102CB0002334E7DC0133A14AC8F804502C44072B25
:102CC000CDE92334C8F800207FF749AC1AEE101A7A
:102CD00022AA484603F064FF00287FF4A5AB249C99
:102CE0003DE41C9A002A40F32D81DDE90D32934228
:102CF000A8BF1346002B1F460BDD1C44C8E9005338
:102D0000239B24940133072B239300F3D48508F1EC
:102D100008080D9B002FA8BFDB1B002B1E4600F3ED
:102D200042830D9B1AF4806F2B44079340F0E1849B
:102D30001C9B0E9A934203DB1AF0010F00F0D08324
:102D4000129A13991444C8E90012239A2494013268
:102D5000072A239200F3BD8508F108080E9A079907
:102D6000AE18761AD51AAE42A8BF2E46002E0DDD3B
:102D7000239BC8F8001001333444072BC8F80460C3
:102D80002494239300F3078608F10808002EA8BFB7
:102D9000AD1B002D7FF7DAAB102D239B40F370871E
:102DA000674F0A97224610261AEE104A05E008F1EE
:102DB0000808103D102D40F3C88201331032072B54
:102DC000C8E90076CDE92332F1DD22AA2146484642
:102DD00003F0E6FE00287FF427ABDDE923320DF196
:102DE0009408E6E71AF0010F7FF487AE239EC8F837
:102DF0000050013601340123072E24942396C8F88D
:102E000004307FF7ADAE1AEE101A22AA484603F03E
:102E1000C7FE00287FF408ABDDE923640DF19408B8
:102E2000A0E6302B3FF461AD3023023A05F8013CB7
:102E30004EAB9B1ADDF80CA0079315465AE50E9B86
:102E40005D1E002D7FF78EAE102D40F31F873C4A8C
:102E5000CDF810A023461AEE10AA0A9210271446A5
:102E600005E008F10808103D102D40F3E18201361D
:102E70001033072EC8E90047CDE92363F1DD22AA0C
:102E80005146484603F08CFE00287FF4CDAADDE9C8
:102E900023630DF19408E6E71AEE101A22AA4846B9
:102EA00003F07EFE00287FF4BFAA249C0DF1940855
:102EB000FFF739BB1AF0100340F03D811AF04002D1
:102EC00000F0C682099A52F8044B09921E46A4B239
:102ED0002BE4039B13F0100366D1039A12F0400217
:102EE00000F0C482099A52F8044B09921E46A4B21B
:102EF00001231EE453F8044B09931AF0100F4FD12D
:102F00001AF0400F48D044F3C036334624B2FFF7DE
:102F1000B6BB2D2364428DF86B3066EB4606CDF8C8
:102F20000CA0012308E41AF0010F3FF40FAB27E5D2
:102F30009BF800700993FFF79CB900BFF88D00085B
:102F4000088E0008239BB549C8F8001001330134EE
:102F50000121072B24942393C8F8041000F38284E2
:102F600008F10808002A40F044820E9A0AF0010392
:102F700013433FF4EBAA129B139A1C44C8E90023A5
:102F8000239B24940133072B239300F3668308F1DA
:102F900008083FE24EADADE41AF4007F40F0A9828C
:102FA000E6173346FFF76BBB099B53F8044B0993B5
:102FB0000123FFF7BEBBDDE9100102460B46FEF719
:102FC000BDFD002840F02C86612F00F07D85412F4B
:102FD00000F09E82049B013327F02003039300F04E
:102FE000BE85472B00F0A985DDE910014AF4807207
:102FF000002907924FF00003C0F2438441EC180B04
:103000000A930893039B462B00F07284452B00F033
:103010002385B0EE480AF0EE680A20AB01931DABA1
:103020000093049A1CAB0221484601F039F8039B37
:10303000472B054640F05C861AF0010F5646DDF836
:103040001CA040F0E184209B5B1B0E93039B472B4D
:1030500000F01983039B462B00F087841C9B0D9383
:103060000D9B039A013B412A1C9300F0E785FAB2BD
:103070000021002BB8BF0D9B8DF87820BABFC3F19B
:1030800001032D222B22092B8DF8792040F36B852B
:103090000DF18704DFF894C1224610468CFB032112
:1030A000DA17C2EBA10202EB8201A3EB410130313E
:1030B00000F8011C19466329134600F1FF32ECDCCD
:1030C0003033D9B2831E9C4202F8011C40F20C86B8
:1030D00013460DF17A0201E013F8011B02F8011BFF
:1030E0009C42F9D10DF189030DF17A021B1A1344A8
:1030F0001EAA9B1A16930E9B169A012B1A4407922E
:1031000040F3B085079B129A13440793079A002354
:1031100026F4806622EAE27246F4807A0C930392E7
:103120000F930D930A9B002B40F0DC8204939DF8D3
:103130006B30FFF779BA099B53F8044B0993FFF7FB
:10314000F4BA099B069853F8041B0993C217C1E906
:1031500000025D46FFF719BA159B002B3FF40FA93B
:10316000159B1B78002B3FF40AA99BF800704AF4CA
:10317000806AFFF77EB8CDF80CA0FFF749BB284B5B
:1031800014931AF0200653D0099B073323F007034A
:103190005E6853F8084B09931AF0010F09D054EAFE
:1031A000060306D030238DF86D704AF0020A8DF8C0
:1031B0006C302AF4806303930223FFF7BABA194BE9
:1031C0001493DEE71AEE101A22AA484603F0E8FC30
:1031D00000287FF429A9249C0DF19408FFF79DB9DC
:1031E0001AEE101A22AA484603F0DAFC00287FF4EF
:1031F0001BA9249C0DF19408FFF7D0BB062A294691
:1032000028BF0622049508952B460392064D099483
:1032100007920C910F910D91FFF706BAF48D0008FB
:10322000C48D0008D88D0008EC8D000867666666BE
:103230001AF0100370D0099B53F8044B0993ABE7C5
:103240001AEE101A22AA484603F0AAFC00287FF4BE
:10325000EBA8DDE923640DF194085DE41AEE101A81
:1032600022AA484603F09CFC00287FF4DDA8DDE993
:1032700023640DF194085CE4039B002203F4806353
:10328000CDE9077809EE109A0DF59C7ADDF8549097
:10329000174698460CE00023204631460A22FEF7E6
:1032A0008BFC0A2C76F100031CD304460E46AA467A
:1032B00020460A2200233146FEF77EFC30320AF116
:1032C000FF3501370AF8012CB8F1000FE3D099F867
:1032D00000309F42DFD1FF2FDDD00A2C76F10003B2
:1032E00080F0E580CDF854900E97DDF82080079FA0
:1032F00019EE109AFFF7F9BA1AEE101A22AA4846E8
:1033000003F04EFC00287FF48FA89DF86B30249CBE
:103310000DF19408FFF7D7B81AF0400200F0B6801C
:10332000099A52F8044B09921E46A4B234E71AEEE9
:10333000101A22AA484603F033FC00287FF474A830
:10334000249C0DF19408FFF716BB144601330A9A2A
:10335000C8F800202C44072BC8F80450CDE92334CA
:103360007FF7F2A80BE4012BCDF80CA07FF4ADAAF7
:1033700051E4099B069953F8042B5D4611600993AB
:10338000FFF703B9284604960994FDF779FC20EA73
:10339000E0719DF86B300790039108960C960F969C
:1033A0000D96FFF741B9102E239B40F39684BC483D
:1033B0000A902146424610271AEE108A044604E07D
:1033C0000832103E102E40F33B8201331031072BA0
:1033D000C2E90047CDE92331F2DD22AA4146484641
:1033E00003F0DEFB00287FF41FA8DDE9233125AAC6
:1033F000E7E7129B13991C44C8E90013239B24940C
:103400000133072B239300F3288108F10808002AD1
:10341000C0F2FD820E9AC8F8005001331444072B05
:10342000CDE92334C8F804207FF78EA8FFF7A7BBA7
:10343000DDF810A01C4601360A9BC8F800302C4469
:10344000072ECDE92364C8F804507FF789ABDAE48E
:10345000099B1AF4007614BF53F8044B53F8044B3D
:1034600009931CBF1646E4B2FFF75FB9039B13F440
:103470000076099B14BF53F8044B53F8044B09938F
:103480001CBF1646E4B20123FFF753B9099B1AF497
:10349000007614BF53F8044B53F8044B09931CBF38
:1034A0001646E4B278E67E4A0A92FFF713BB189BF1
:1034B0001799ED1A1A46284603F004FB99F80130D3
:1034C0000BB109F10109204631460A2200230027E9
:1034D000FEF772FBE9E62D238DF86B30FFF794B809
:1034E0000E9A0799AE18761AD51AAE42A8BF2E4684
:1034F0004CE444F3C016334664B2FFF7C0B8099BEE
:10350000069953F8042B099311805D46FFF73DB8E7
:1035100030238DF86C3058238DF86D30049B632B6D
:103520004AF0020400F3D5820023089335ADDDE9AB
:1035300010124AF481730793002A27F02003A24651
:103540000393C0F29F81002342EC181B0A93612F62
:1035500000F04A83412F7FF455ADB0EE480AF0EEFB
:10356000680A1CA803F01EFA00224FF07F5351ECAA
:10357000100BFEF749F802460B4643EC192B0022CC
:103580000023FEF7A9FA08B101231C93454B0B93C6
:10359000049B1995CDE90C7BCDE90EA80CEE109A91
:1035A000DDF82CB059EC198B5E1E2C4605E000228C
:1035B0000023013EFEF790FAE0B93B4B0022404663
:1035C0004946FEF721F889468046FEF7CDFA0546C2
:1035D000FDF7B0FF0B46024649464046FDF75CFE4C
:1035E0001BF80530A24604F8013B731C37468046A1
:1035F0008946DCD149EC198B2C4BDDF83C8051EC31
:10360000190B00223E461CEE109ADDE90C7BCDF82A
:1036100030A00D95DDF838A0199DFEF785FA002839
:1036200040F0368251EC190B204B0022FEF754FA81
:1036300018B10D9BD90700F12B82002E334606DB13
:1036400001332344302204F8012BA342FBD1631B36
:1036500056460E93DDF81CA0F8E41AEE101A22AAC2
:10366000484603F09DFA00287EF4DEAEDDE92334FF
:103670001C9A0DF19408CAE61AEE103A986D02F001
:10368000E5F8FEF79DBE1C9B0D93DA1C02DB049A45
:1036900093420DDD023F27F020030393E0E400BFD7
:1036A000088E0008D88D0008000030400000E03F80
:1036B000DDE90D318B42C0F27F81F70740F1918245
:1036C000129A13440793760503D50D9B002B00F344
:1036D0005A82079B23EAE3730393672700230C9323
:1036E0000F931FE52D2300228DF86B300492FEF717
:1036F0009EBF0E9BCDF828B0DDF83CB0079E159F0D
:10370000CDF81CA0EB1804934246DDF860A00C9B9A
:103710000B951AEE108AA446BBF1000F30D0002B97
:1037200071D1013F0BF1FF3B179BC2E9003A239B8C
:103730000133D444072BCDF890C0239367DC0832C3
:10374000049B38789B1B8342A8BF0346002B1C4672
:103750000BDD239801309C440728C2E90063CDF8B3
:1037600090C023905FDC38780832002CACBF051B7A
:103770000546002D17DC06440C9BBBF1000FCED193
:10378000002B40D10B9D0E9BDDF81CA0DDF828B06E
:103790001597EB189E429046324628BF1A4664465B
:1037A0000792FFF7C5BA102D23981FDD102463463A
:1037B00004E0103D102D02F1080216DD0130B3497E
:1037C00010330728C2E90014CDE92303F1DD22AA52
:1037D0004146484603F0E4F900287EF425AE103D4A
:1037E000102DDDE9230325AAE8DC9C460130A74B18
:1037F0005560AC440728CDE9230C13604DDC3878C4
:1038000008320644B8E70C9B013B0C938CE722AAD4
:103810004146484603F0C4F900287EF405AEDDF8C1
:1038200090C025AA8CE722AA4146484603F0B8F981
:1038300000287EF4F9AD3878DDF890C025AA94E729
:103840000C46904601330A9AC8F800203444072BEE
:10385000CDE92334C8F8046000F3618108F1080859
:10386000FFF75FBA1AEE101A22AA484603F098F939
:1038700000287EF4D9AD1C9A249C0DF19408FFF722
:1038800071BB0893DDE9103408EE103A04F10043EF
:1038900008EE903A2D230A9359E622AA414648465B
:1038A00003F07EF900287EF4BFAD3878DDF890C0D3
:1038B00025AA064460E71AEE101A22AA484603F029
:1038C0006FF900287EF4B0AD249C0DF19408FFF749
:1038D00020BA1AEE101A22AA484603F061F900280D
:1038E0007EF4A2AD1C9B249C0DF19408FFF736BA20
:1038F00020AB01931DAB0093049AB0EE480AF0EEA2
:10390000680A1CAB0321484600F0CAFB0378302B41
:10391000054600F099811C9B049A56461344DDF835
:103920001CA0EC1851EC180B00220023FEF7D4F871
:1039300010B12346FFF788BB209BA342BFF484ABA2
:1039400030215A1C20921970209B9C42F9D8FFF715
:103950007BBB049B0393079309949DF86B30049001
:103960000C900F900D90FEF75FBE1C9A0D92002AEE
:1039700040F39081049906F001030B4340F02B8142
:103980000D9B07936627730500F1FE80079B23EAD2
:10399000E3730393A2E61AEE101A22AA484603F034
:1039A000FFF800287EF440AD1C9D0E9B249C5D1BFF
:1039B0000DF19408FFF7EAB90E9B129A9A180D9B25
:1039C0000792002B40F353816727DCE70023049321
:1039D000FEF751BC1AEE101A1AEE900A22AA03F052
:1039E000DFF800283EF4D9ADFEF725BD6B6EDC078D
:1039F00005D4AB89980502D4A86D01F027FF4FF0DC
:103A0000FF330693FEF721BD049BEC188AE756426C
:103A1000103280F26F811D480A90424621461AEE0C
:103A2000108A1027044603E00832103E102E5ADD9B
:103A300001331031072BC2E90047CDE92331F3DD13
:103A400022AA4146484603F0ABF800287EF4ECACCD
:103A5000DDE9233125AAE8E7049BB0EE480AF0EE41
:103A6000680A5C1C20AB01931DAB009322461CAB83
:103A70000221484600F014FB054656462C44DDF86A
:103A80001CA04FE7014A0A92FEF7E6BF088E000825
:103A90000C9B20930B9B14F8012CD97B8A42234664
:103AA00009D1302003F8010C209B5A1E209213F8F4
:103AB000012C9142F6D0392A0BBF0B9A0132927A2F
:103AC000D2B203F8012CC2E530238DF86C30782394
:103AD00022E5591C484601F05BFF0546002800F02E
:103AE0000C81089023E590460C4601330A9AC8F8E9
:103AF00000203444072BCDE92334C8F804607FF755
:103B000046AA1AEE101A22AA484603F049F80028DD
:103B10007EF48AACDDE923340DF194087AE41AEEE0
:103B2000101A22AA484603F03BF800287EF47CAC29
:103B3000249C0DF19408FFF7F4B8049B002B08BFF8
:103B400001230493119B4AF48072002B0792C0F268
:103B50009B809DED108B0A900890FFF75ABA0623C0
:103B60000493FFF741BA002940F0A88030228DF875
:103B70007A200DF17B02303302F8013B1EABD31AE1
:103B80001693FFF7B8BA672715990B78FF2B00F04B
:103B9000A78000240D9A204603E001300131FF2B5D
:103BA00008D0934206DAD21A4B78002BF5D10B7865
:103BB0000134F4E715910D920F900C940C9A0F9B21
:103BC00018991344079A01FB0323079323EAE3732D
:103BD0000393FFF7A7BA129BD318194407916627DE
:103BE000D1E60D9B07936EE51CA8B0EE480AF0EEF7
:103BF000680A02F0D7FE00224FF07F5351EC100B01
:103C0000FDF702FD02460B4643EC192B0022002370
:103C1000FDF762FF08B101231C933C4B0B93B7E403
:103C2000119B3B4D3B4A002BB6BF2D239DF86B30BB
:103C30008DF86B302AF0800AFEF7EABC07F10F021C
:103C4000D2B20121FFF715BA51EC180B0022002364
:103C5000FDF742FF00287FF45EAE049BC3F1010331
:103C60001C9359E6F3077FF551AAFFF74BBAC3F14E
:103C700001031A4422EAE2730792039367272DE5B2
:103C8000254A0A92FFF762BB0890FBE5224B0A9394
:103C9000FFF7D1BB049A06F001061346334304D163
:103CA000012303936627079318E5129B01331A44F7
:103CB00022EAE2730792039366270FE50DF17A0279
:103CC00059E7099B9BF80170934653F8042B09931D
:103CD00042EAE2720492FEF7CCBA0F4A0A92B1E5C8
:103CE00000230C930F9369E702231693FFF703BA9F
:103CF000049CC2E6084A0A92F7E61AEE102A938953
:103D000043F040039381FEF796BB00BFC48D0008CB
:103D1000BC8D0008C08D0008088E000810B4054C4A
:103D20008446134620685DF8044B0A466146FEF758
:103D30002BBA00BF0C00002070B50C468989ADF588
:103D40008E6D21F00201ADF81410616E1B91E189B6
:103D5000ADF81610E1690991616A0B911CA90291F5
:103D600006914FF4806106460491079118A800213E
:103D7000CDE90032089101F059FDDDE9003202A9D8
:103D80003046FEF701FA051E07DB02A9304601F0B6
:103D9000BFF9002818BF4FF0FF35BDF814305B069F
:103DA00003D5A38943F04003A381189801F042FD95
:103DB00028460DF58E6D70BD38B5334B1B68054632
:103DC0000C460BB19A6B12B3B4F90C3018079AB2C7
:103DD00025D5216900292DD012F0010007D000203F
:103DE000A06060694042A06139B1002038BD9507EC
:103DF00058BF6069A0600029F7D1120658BF084675
:103E0000F4D543F04003A3814FF0FF3038BD18468E
:103E100001F02AFAB4F90C3018079AB2D9D4D106B5
:103E20002AD5520714D4216943F00803A3819AB21A
:103E30000029D1D102F42070B0F5007FCCD021460A
:103E4000284601F005FDB4F90C3021699AB2C3E7A8
:103E5000216B51B104F14002914204D0284601F097
:103E60008FFBB4F90C300022226321690022C4E9DF
:103E7000001223F02403D7E7092243F040032A600D
:103E80004FF0FF30A38138BD0C000020024B13B16E
:103E9000024800F06BB8704700000000B5540008FD
:103EA0002DE9F84F2F4B2DED028B834618680F46F6
:103EB00001F0C4FC2C4BD3F80080D8F84861AEB1B7
:103EC00008EE10BA4FF001094FF0000A7468651E41
:103ED0000CD4013406EB840487B1D4F80031BB4222
:103EE0000CD0013D6B1CA4F10404F5D1BDEC028B98
:103EF0001C4B1868BDE8F84F01F0A8BC7368226835
:103F0000013BAB420CBF7560C4F800A0002AE8D0AA
:103F1000D6F88801D6F804B009FA05F101420BD1B0
:103F2000904772685A4513D1D8F84831B342D8D077
:103F30001E46002ECAD1D9E7D6F88C0101420CD119
:103F4000D4F8801018EE100A904772685A45EBD0EA
:103F5000D8F84861002EB9D1C8E7D4F8800090475E
:103F6000DFE700BF38040020B08D000800230146C1
:103F70001A46184603F07EBD2DE9F04F03690C691F
:103F8000A34283B0C0F28780013C01F11405A30075
:103F900000F11408009355F8243058F82420013318
:103FA00081469A4208EB840005EB84070190B2FB3E
:103FB000F3F63BD30023AE4640469B465EF804AB87
:103FC00002681FFA8AFC06FB0C334FEA134C4FEAD7
:103FD0001A4A06FB0ACA1FFA83FCABEB0C0C1FFA49
:103FE0008AF31CFA82FCC3EB124202EB2C421FFA4A
:103FF0008CFC4CEA0243774540F8043B4FEA224BE5
:104000004FEA1A43DAD2009B58F8033073B9019B88
:10401000043B984504D307E0984504F1FF3403D2EC
:1040200053F80429002AF7D0C9F81040484602F096
:104030004BFA00282BDB01364046002355F8041BC1
:10404000D0F800C08AB29A1A0B0C12FA8CF2C3EBA9
:104050001C4303EB224392B242EA0342AF4240F8D0
:10406000042B4FEA2343E9D258F8242008EB8403B9
:104070006AB9043B984504D307E0984504F1FF343E
:1040800003D253F80429002AF7D0C9F8104030466B
:1040900003B0BDE8F08F002003B0BDE8F08F00BF93
:1040A0002DE9F04F2DED068B95B08DED020B0191B2
:1040B000016C249D099259EC108B0446069341B182
:1040C000426C4A60012393408B6001F043FF002360
:1040D0002364B9F1000AB4BF012300232B607C4B99
:1040E000BCBF2AF0004ACDF80CA033EA0A0300F066
:1040F000B2809DED027B002251EC170BB0EE479A87
:10410000F0EE679A0023FDF7E7FC074680B1069AB8
:1041100001231360259B002B00F0DC826D481860A2
:10412000431E0093009815B0BDEC068BBDE8F08FE0
:1041300012AA13A92046B0EE490AF0EE690A02F06D
:104140001BFBB0EE498AF0EE698A5FEA1A56054613
:1041500040F09980DDE912763E4406F23240202894
:1041600040F3AD83C0F140000AFA00FA06F21240B3
:1041700028FA00F04AEA0000FDF7CCF90123013EDD
:104180000D93A1F1F871544B0022FDF785F84AA375
:10419000D3E90023FDF738FA49A3D3E90023FDF75B
:1041A0007DF8804630468946FDF7C4F946A3D3E939
:1041B0000023FDF729FA02460B4640464946FDF723
:1041C0006DF880468946FDF7CFFC00228346002328
:1041D00040464946FDF78AFC002840F06E82BBF15C
:1041E000160F00F25D823D4B03EBCB03D3E90023B6
:1041F00051EC190BFDF77AFC002875D00023BE1B8B
:104200000C93731E0BF1FF3B049300F150820023CB
:104210000893BBF1000F6EDA089BCDF814B0A3EB46
:104220000B030893CBF100030B93019B092B4FF079
:10423000000B69D8052B40F34083043B0193002613
:10424000019B023B032B00F29B86DFE813F0500436
:104250004D0445042804069A42F20F73CAF3130A68
:1042600013605AEA08031DD1259B002B00F07F86BE
:104270001B4B00930833259A0098136015B0BDECD2
:10428000068BBDE8F08F18EE903AC3F3130351ECA0
:10429000190B43F07F510D97A6F2FF36129F41F4A0
:1042A000401170E7259B002B40F0DD830D4B009300
:1042B00038E700BFAFF3008061436F63A787D23F49
:1042C000B3C8608B288AC63FFB799F501344D33F05
:1042D0000000F07FF58D00080000F83F688F0008AF
:1042E0001C8E0008188E0008BE1B731E049300F17C
:1042F0009C840C900890049B5B44CDE9043B002314
:104300000B93019B092B95D9002301264FF0FF3217
:1043100001930A9607920993079B0F93002161640A
:10432000204601F0F1FD0090002800F03186009B4E
:104330002364079B0E2B00F2F980002E00F0F6801C
:104340000599002940F37384BD4B01F00F0203EB84
:10435000C2034FEA2118C905D3E9006740F105847B
:10436000B84B51EC190BD3E90823FDF777FA41EC70
:10437000180B08F00F084FF0030AB8F1000F13D024
:10438000DFF8C09218F0010F09D030463946D9E95C
:104390000023FDF739F90AF1010A06460F465FEAE4
:1043A000680809F10809EDD151EC180B32463B467B
:1043B000FDF754FA41EC1A0B0C9B5BB157EC1A6BEE
:1043C000A14B1AEE100A00223946FDF78FFB002898
:1043D00040F054855046FDF7ADF853EC1A2BFDF72D
:1043E00013F99A4B0022FCF759FF079B8046A1F175
:1043F0005079002B00F0F583059B1093079B0E93DB
:104400000A9B002B00F0C2840E9A8D4B9049DDF878
:1044100000A003EBC20353E902230020FDF71EFABC
:1044200042464B46FCF738FF59EC1A8B41EC180B0F
:1044300049461AEE100AFDF797FB0746FDF77AF892
:1044400002460B461AEE100A4946FCF725FF3037A4
:104450000AF8017B53EC182B06460F46FDF746FB86
:10446000002840F057854FF000080AEE105ACDF8AA
:1044700044B055465BEC18AB08EE104A44462AE0BF
:104480000E9B01349C424BDA724B50465946002237
:10449000FDF7BAF86F4B002282468B46304639460C
:1044A000FDF7B2F889468046FDF75EFB0746FDF74B
:1044B00041F802460B4640464946FCF7EDFE3037D0
:1044C00005F8017B52465B4606460F46FDF70EFB9C
:1044D000002840F01A8532463B465B490020FCF735
:1044E000DBFE52465B46FDF701FB0028C8D0109B5F
:1044F000009A0593AA4618EE104A1AEE105A02E0E6
:10450000924500F0EC84D1461AF8013D392BF7D0E2
:104510000133DBB28AF80030059B01330593ACE12F
:10452000DDF844B01AEE105A18EE104A139B002B17
:10453000C0F29480059A0E2A00F39080404B03EB62
:10454000C203D3E90089099B002B1BDA079B002BD0
:1045500018DC40F05F83404B002240464946FDF79F
:1045600053F802460B4651EC190BFDF7C9FADDF87A
:104570001CA05646002800F0D282099BDDF800807E
:10458000DF43D4E242464B4651EC190BFDF766F986
:10459000FDF7EAFA06468346FCF7CCFF42464B4657
:1045A000FDF732F80B46024651EC190BFCF774FE8E
:1045B000DDF800A0334630330AF8013B079B012B9E
:1045C00000F090834FF0010B08EE105A08EE904A6D
:1045D0001D465446DA461DE042464B4630463946B3
:1045E000FDF73CF9FDF7C0FA8346FCF7A3FF42460E
:1045F0004B46FDF709F80AF1010A0B460246394617
:104600003046FCF749FE0BF13003AA4504F8013BA4
:1046100000F063830F4B0022FCF7F6FF002200231B
:1046200006460F46FDF758FA0028D5D0A24618EEE8
:10463000105A18EE904A059B01330593D1461CE1B0
:10464000688F0008408F00080000F03F00001C4009
:104650000000E03F00002440000014400A9A002AB5
:1046600040D0019A012A40F39E82079B03F1FF3854
:104670000B9B4345C0F27082A3EB0808079B002BFD
:10468000C0F26883049A1146089A194417461A44DE
:10469000049108920121204601F064FD064625E0C0
:1046A0000123BE1B0C93731E04937FF5B0ADC6F1BE
:1046B0000103089300230493ABE55846FCF73AFF47
:1046C00042464B46FDF708FA00287FF488AD0BF10F
:1046D000FF3B84E5874B0093009815B0BDEC068B3B
:1046E000BDE8F08FDDF82C80089F0A9E002F0CDDBE
:1046F000049A002A09DD0899BA421346A8BF3B462E
:10470000C91AFF1AD31A089104930B9BDBB10A9BB9
:10471000002B00F08382B8F1000F0FDD31464246D6
:10472000204601F0F9FD2A4601460646204601F0E2
:1047300047FD29460546204601F00CFC0B9BB3EBD8
:10474000080240F001830121204601F00BFDBBF17E
:10475000000F824600F3B880019B012B40F3878154
:104760004FF000080120BBF1000F40F0B980049A1F
:10477000104410F01F0000F09780C0F12003042BBC
:1047800040F3F983089BC0F11C00034402440893E2
:1047900007440492089B002B05DD29461A46204653
:1047A00001F01AFE0546049B002B05DD51461A4612
:1047B000204601F011FE82460C9B002B40F0388110
:1047C000079B002B40F31F810A9B002B40F0A28027
:1047D000059B01330593DDF80080DDF81C9001276F
:1047E00007E0294600230A22204601F0BDFB0137DD
:1047F000054651462846FFF7BFFB4F4500F1300004
:1048000008F8010BEDDB079A002AC8BF9346009A0F
:10481000D8BF4FF0010B03469344002729460122DD
:104820002046019301F0D8FD5146054601F04CFEAB
:10483000002840F3A6811BF8013C009A0BF1FF3BD6
:1048400004E05A4500F0A8811BF8013D392B0BF11B
:104850000109F6D001338BF800305146204601F0B3
:1048600079FB56B12FB1B74203D03946204601F04B
:1048700071FB3146204601F06DFB2946204601F0D0
:1048800069FB002389F80030069B1A46059B1360DC
:10489000259B002B3FF446AC0098C3F8009015B060
:1048A000BDEC068BBDE8F08F1C20089B03440893E9
:1048B000049B0344074404936CE70126C0E4C0F161
:1048C000200008FA00F057E401465A46204601F05D
:1048D00023FD019B012B824640F3D5814FF0000858
:1048E000DAF810300AEB8303186901F0EBFBC0F132
:1048F00020003CE7F48D0008314600230A222046C0
:1049000001F032FB0F9B002B064640F32383CDF8CA
:1049100014900793002F00F31881B8F1000F40F0B6
:10492000FC81B046029B009F079903F001027B1EA9
:104930001944019B0A921343089109935146284652
:10494000FFF71AFB31468346284601F0BDFD42467B
:1049500051468146204601F0D9FDC26801460BF15F
:104960003003002A42D104902846079301F0ACFDA1
:1049700004990290204601F0EDFA029A079B1AB9B9
:104980000999002900F0D682B9F1000FC0F28781A1
:10499000019949EA01090A9951EA090100F07F8168
:1049A000002A00F3E781089A3B7007F1010997425A
:1049B000CB4600F0E581294600230A22204601F07B
:1049C000D3FA4645054631464FF000034FF00A0240
:1049D000204612D001F0C8FA4146064600230A22BA
:1049E000204601F0C1FA4F468046A7E720460293D1
:1049F00001F0B0FA029B0122C6E701F0B5FA4F467A
:104A0000064680469AE7019B022B77DC0A9B002B27
:104A100080D1059B5146013328460593FFF7ACFA38
:104A2000DDF800B000F130030BF8013B0027F5E69C
:104A30005146284601F048FD0028BFF6C1AE294680
:104A400000230A22204601F08FFA059B03F1FF396B
:104A50000A9B0546002B7FF44FAF0F9B002B40F3C2
:104A600070820793B7E6BD4B0093033303E4DDE99F
:104A7000021200297FF474AEC2F31303002B7FF4FB
:104A80006FAEB74B1340002B00F03D82089B013303
:104A90000893049B013304934FF0010862E601235D
:104AA0000A93099B059A13440F930133012B1F4668
:104AB0000793B8BF01270021172F61647FF730AC3F
:104AC000012204235B0003F11400B842114602F1F5
:104AD0000102F7D9616423E401230A93099F002F9F
:104AE0004ADD0F970797E6E700230A93D9E70023EB
:104AF0000A93F3E70F9BCDF814900793079B002BC5
:104B00007FF43BAD51460522204601F02DFA0146C7
:104B10008246284601F0D8FC00287FF72EAD009889
:104B2000059F3123804600F8013B01370090514634
:104B3000204601F00FFA7B1CDDF800900593CDF8BC
:104B40000080002E7FF495AE97E631463A46204627
:104B500001F042FC0646E0E60B9BCDF82C80A8EB6A
:104B600003039B444FF0000888E54FF0020AB0EEC3
:104B7000498AF0EE698A00E4012309930793FFF75D
:104B8000CBBB03D1019BDB073FF555AED9461BF8E4
:104B9000013D302BFAD060E6059B009A0133059366
:104BA0003123137059E60D9A002A00F0638103F255
:104BB0003343049ADDF82C801A440492089A17466D
:104BC0001A44089266E55046FCF7B4FC53EC1A2BE5
:104BD000FCF71AFD634B0022FCF760FB8046A1F155
:104BE0005079614B002251EC1A0BFCF755FB424601
:104BF0004B4606460F46FCF797FF002840F07F81A2
:104C000030463946424609F10043FCF76FFF002861
:104C10003FF48CAC4FF0000A5646AEE429460B9A9E
:104C2000204601F079FB05468DE50C903FE500F04C
:104C30004E81059A4D4B564206F00F0203EBC2031C
:104C4000D3E9002351EC190BFCF7DEFC361141ECE3
:104C50001A0B00F08881464F00234FF0020AF2073A
:104C600006D5D7E90023FCF7CFFC0AF1010A01239E
:104C7000761007F10807F2D1002B3FF49DAB41EC11
:104C80001A0BFFF799BB029B002B7FF427AEDDE9DF
:104C90000212C2F31303002B3FF4F3AE1EE6002A08
:104CA00012DD294601222046019301F095FB514671
:104CB000054601F009FC0028019B40F33581392BA2
:104CC00000F013810BF13103B94609F8013B059B54
:104CD0000133374605934646BFE5A24618EE105A03
:104CE00018EE904A02460B46FCF7D8FA42464B466D
:104CF00006460F46FCF718FF60B942464B46304661
:104D00003946FCF7E9FE00283FF495AC5FEACB7129
:104D10007FF591AC009AFFF7F6BB7168204601F071
:104D2000F3F80746002800F03A81336902339A000D
:104D300006F10C010C30FBF7F3FE39460122204648
:104D400001F04AFB8046EDE52946204601F0E4FAF1
:104D50000546F8E4DDE907239F1A9BE4188E000856
:104D60000000F07F00001C4000001440688F000825
:104D7000408F0008392B00F0B880B9460133A4E712
:104D8000059A013237460592464647E50E988D4909
:104D900001EBC00142464B4651E90201FCF734FCED
:104DA0005AEC1A9B41EC180B51461AEE100AFCF70C
:104DB000DBFE0746FCF7BEFB02460B461AEE100A66
:104DC0005146FCF769FA06460E98DDF80080303748
:104DD000012808F8017B0F4600F0BA800E9B009A6C
:104DE000CDF838B013449B46C246774B002230467C
:104DF0003946FCF709FC89468046FCF7B5FE0746B4
:104E0000FCF798FB303702460B4640464946FCF714
:104E100043FA0AF8017BDA4506460F46E5D1DA4641
:104E2000DDF838B0694B59EC188B002218EE100AE7
:104E30004946FCF733FA32463B46FCF757FE00285A
:104E40006DD118EE102A4B4660490020FCF724FA79
:104E500032463B46FCF768FE00283FF467ABD1467C
:104E60000AF1FF3A19F8013C302BF8D0109B0133BE
:104E7000059302E5129BC3F136039AE6079B002BCC
:104E80003FF4A1AE0F9B002B7FF750AB059A0E931A
:104E9000013A4D4B10921AEE100A39460022FCF7E7
:104EA000B3FB024616460F460AF10100FCF742FB2F
:104EB00032463B46FCF7A8FB454B0022FCF7EEF9D7
:104EC00047EC1A6B8046A1F15079FFF799BA4FF081
:104ED000020AB0EE49AAF0EE69AAFFF76DBA059B87
:104EE000013305933123FFF715BB059BBB46013307
:104EF0000593392337460BF8013B46469DE44FF0B6
:104F0000000A56460BE698462CE4AA4618EE104ACC
:104F10001AEE105A109B01330593D146ADE4109B55
:104F2000009A0593FFF7EFBA7FF4CEAEDA077FF56C
:104F3000CBAEC4E6392BD8D0B9F1000F3FF7C2AEE3
:104F4000C2E6019B022B3FF7D5ADCDF8149060E58A
:104F5000C24667E7019B022B3FF7CCAD0F9BCDF814
:104F600014900793D6E44FF0020AFFF725BA194BC5
:104F70000093FFF7D7B83FF40DACC0F13C0094E4C8
:104F8000002666643146204600F0BEFF009068B9F6
:104F9000114B124800224FF4D57102F0B1FD0E4BB7
:104FA0000E483A4640F2EA2102F0AAFD009B236433
:104FB00001224FF0FF3309960F930A920793FFF7F0
:104FC000B5BA00BF688F0008000024400000E03F31
:104FD00000001C401C8E0008288E00083C8E000833
:104FE000B1F90C202DE9F0410C461107804647D459
:104FF000636842F40062002BA2815EDDA56A002D89
:1050000058D00023D8F80060C8F8003093B212F4EA
:10501000805256D10123E1694046A847431C67D01E
:10502000A389A56A5F0705D56368C01A236B0BB116
:10503000E36BC01AE169024600234046A847411CC1
:1050400041D1D8F80030002B3DD01D2B01D0162BBC
:1050500056D1A3892269226023F400630021616094
:10506000A381216BC8F8006021B304F14003994289
:1050700002D0404600F084FA00202063BDE8F081B1
:105080002669BEB193B2256826609A070CBF636992
:105090000023AD1BA3600BE02B463246E169676A33
:1050A0004046B847B0F1000CA5EB0C05664417DD8F
:1050B000002DF1DC0020BDE8F081E36B002B9DDCCE
:1050C000F8E7206DAEE7B4F90C302269226023F4D2
:1050D0000063A3810022DB046260C2D52065C0E7C3
:1050E000A38943F040034FF0FF30A381BDE8F08176
:1050F000D8F80030002B93D01D2B06D0162B04D0EF
:10510000A38943F04003A381D5E7C8F80060D1E745
:1051100038B50C46054608B1836BA3B1B4F90C0051
:10512000B8B1636EDB0701D4810515D52846214649
:10513000FFF756FF636EDA07054602D4A3899B0585
:105140000ED5284638BD00F08FF8B4F90C000028C1
:10515000E7D10546284638BDA06D00F06FFBE5E7B6
:10516000A06D00F073FB284638BD00BF38B548B3CA
:10517000184B1D6804460DB1AB6BBBB1B4F90C0004
:1051800088B1636EDB0701D4810513D5284621461B
:10519000FFF726FF636EDA07054602D4A3899B0555
:1051A0000CD5284638BD0546284638BD284600F0AF
:1051B0005BF8E3E7A06D00F041FBE7E7A06D00F0CE
:1051C00045FBEEE7044B05491868BDE8384000F0A0
:1051D000FDBA00BF0C000020B08D0008115100087E
:1051E000014900F0F3BA00BFD17B000808B5436E57
:1051F000DA0702D483899B0501D5002008BD806DA4
:1052000000F01CFB002008BD08B5436EDA0702D48D
:1052100083899B0501D5002008BD806D00F016FB39
:10522000002008BD70B568224D1E02FB05F50E4634
:1052300005F1740100F0ACFB044640B100210C30D4
:10524000C4E90016A06005F16802FCF725FF2046BE
:1052500070BD00BF024B0349186800F0B7BA00BF29
:10526000B08D0008D17B00082DE9F047824639480F
:1052700000F0E4FADAF83840002C66D1DAF804508D
:10528000354ACAF83C200323CAE9B843DFF8DC906A
:10529000DFF8DC80314F324E04230AF53B72CAF846
:1052A000E8222146C5E90243C5E90044C5E90444B2
:1052B0006C660822AC6105F15C00FCF7EDFEC5E907
:1052C0000759C5E90987EE6205F1580000F0AEFA0A
:1052D000DAF80850234BEB602146C5E90044C5E9E4
:1052E00004446C66AC60AC61082205F15C00FCF71C
:1052F000D3FEC5E90759C5E90987EE6205F15800F3
:1053000000F094FADAF80C50174BEB602146C5E92F
:105310000044C5E904446C66AC60AC61082205F148
:105320005C00FCF7B9FE05F15800C5E90759C5E96D
:105330000A76C5F8248000F079FA0123CAF83830DB
:105340000448BDE8F04700F081BABDE8F0470148E5
:1053500000F07CBA200A0020E15100089D6A000894
:10536000BD6A00080900010012000200356A000849
:105370005D6A00082DE9F04107462D4800F05EFA0D
:105380002C4B1E68B36B93B306F538764FF00408C8
:10539000D6E90134013B04D525E05A1C04F1680428
:1053A00021D0B4F90C50013B002DF6D1224BE36023
:1053B00004F15800656600F039FA1D4800F046FA1D
:1053C000C4E90155C4E904552560A56108222946B0
:1053D00004F15C00FCF760FEC4E90C55C4E911550A
:1053E0002046BDE8F08135682DB12E46D0E7304625
:1053F000FFF73AFFC8E74FF4D671384600F0C8FA15
:10540000044668B10560C0F804800C302946A060ED
:1054100025464FF4D072FCF73FFE34602E46B7E7C6
:105420000348346000F012FA0C233B60D8E700BF59
:105430001C0A0020B08D00080100FFFF014800F0A9
:10544000FDB900BF1C0A0020014800F0FFB900BFF1
:105450001C0A0020014800F0F1B900BF200A00201A
:10546000014800F0F3B900BF200A002008B5054844
:1054700000F0E4F9044B05491868BDE8084000F065
:1054800085B900BF1C0A00200C000020ED51000867
:1054900008B5054B0549186800F078F9BDE80840E3
:1054A000034800F0D3B900BF0C00002009520008E7
:1054B0001C0A002038B5084B084D5B1B9C1007D018
:1054C000043B1D44013C55F804399847002CF9D1A0
:1054D000BDE8384003F00EBCEC910008E8910008EC
:1054E000F8B5244F0C46064600F002FDBA68556830
:1054F000C4F57E630F3325F003052B4423F47F634B
:1055000023F00F03A3F58054B4F5805F07DB00217F
:10551000304601F07DFABB682B44984204D03046F7
:1055200000F0ECFC0020F8BD6142304601F070FA5A
:1055300001300DD0104ABB682D1B45F001055D60A0
:10554000136830461B1B136000F0D8FC0120F8BD27
:105550000021304601F05CFABA68831A0F2BDEDDB9
:1055600043F001035360054B03491B68C01A0860F0
:10557000D5E700BF3C040020280A00204408002092
:10558000002961D0F8B50C46064600F0B1FC54F88D
:10559000042C7B4FA4F1080522F0010105EB010C5E
:1055A000B868DCF80430604523F0030300F08B801A
:1055B000D207CCF8043032D454F8082CAD1A114478
:1055C000AA6807F1080082426AD00CEB0304D4F801
:1055D00004E0EC68D4601EF0010FA26000F0978038
:1055E00041F001036B60CCF80010B1F5007F35D2BB
:1055F0007A68CB0848090121013381401143796061
:1056000007EBC30257F83310083AC5E9021247F80E
:105610003350CD603046BDE8F84000F06FBC0CEB75
:1056200003025268D00710D4194407F10800DCF8CF
:105630000830834273D0DCF80C20DA60936041F0CC
:1056400001036B606950D0E7704741F00103B1F589
:10565000007F44F8043CCCF80010C9D3B1F5206FAA
:105660004FEA512348D28B0903F1390003F1380284
:10567000C300F818FB580838984259D05A6822F0ED
:1056800003028A4202D99B689842F7D1D868C5E9DB
:1056900002308560DD603046BDE8F84000F02EBC89
:1056A0000CEB03025268D20763D40B44DCE902120C
:1056B000CA60916043F001026A603046EB50BDE879
:1056C000F84000F01BBC0B44D10707D454F8082C59
:1056D000AD1A1344D5E90212CA60916043F0010289
:1056E0006A60284ABD6012689A4293D8264B3046B9
:1056F0001968FFF7F5FE8DE7142B0AD9542B1FD834
:105700000B0B03F16F0003F16E02C300B1E7194404
:105710008DE703F15C0003F15B02C300A9E741F0F0
:105720000103C7E90455C5E902006B60695071E7E0
:1057300079689210012404FA02F20A437A60A6E71B
:10574000B3F5AA7F06D8CB0B03F1780003F17702FB
:10575000C3008EE740F25452934206D88B0C03F1FB
:105760007D0003F17C02C30083E74FF47E737E2249
:105770007FE741F001036B60CCF800104AE700BFFF
:105780003C04002048080020580A00202DE9F04180
:10579000884600F538770026D7E90154013D0FD43B
:1057A000A389012B05F1FF3506D9B4F90E30013379
:1057B000204601D0C04706436B1C04F16804EFD1BA
:1057C0003F68002FE8D13046BDE8F0812DE9F8436D
:1057D0000746884600F538764FF00009D6E90154AF
:1057E000013D11D4A389012B05F1FF3508D9B4F986
:1057F0000E300133214603D03846C04749EA00093C
:105800006B1C04F16804EDD13668002EE6D14846E1
:10581000BDE8F883F0307047004870473C0900202D
:10582000004870473C090020704700BF704700BF28
:10583000704700BF704700BF704700BF704700BF90
:105840000120704701207047704700BF704700BFBC
:105850002DE9F0418B890C46990796B008D504F1E3
:1058600043030122C4E90432236016B0BDE8F0818D
:10587000B4F90E100029064627DB6A4602F0FAFA50
:10588000002821DB019D05F47045A5F50055B5FA0A
:1058900085F54FF480686D094FF400674146304646
:1058A00000F076F8B4F90C30F0B1204AF26343F01E
:1058B0008003C4F81480A3812060206135BB3B4382
:1058C000A38116B0BDE8F081A38913F0800519D03B
:1058D0004FF040084146304600F05AF80025B4F930
:1058E0000C302F460028E0D19A05BED423F00303E4
:1058F00004F1430243F002030121C4E90421A3811E
:105900002260B2E74FF480682F46C7E7B4F90E1063
:10591000304602F03DFC10B9B4F90C30CFE7A38952
:1059200023F0030343F001031BB2C8E7E151000871
:1059300070B50C46B1F90E10002996B015461E46FA
:1059400014DB6A4602F096FA00280FDB019A02F493
:105950007042A2F50052B2FA82F24FF4806352090B
:105960004FF4006032602B6016B070BDB4F90C10BB
:10597000002311F08000336004D0402218462A60D2
:1059800016B070BD4FF480632B6016B070BD00BFC1
:105990002DE9F04F01F10B06162E83B0044624D8F2
:1059A000102900F2BA8000F0A3FA10261822022073
:1059B000B54F3A44A2F1080153688B4200F0BA8017
:1059C0005A68D96822F003021A449D68E9608D6024
:1059D000516841F001012046516003F1080500F0D3
:1059E0008DFA284603B0BDE8F08F36F0070600F1C7
:1059F0009480B14200F2918000F07AFAB6F5FC7F13
:105A0000C0F09A81730A00F08F80042B00F26F813E
:105A1000B30903F1390003F1380CC3009A4F3B443A
:105A2000A3F108055B689D4206D10CE0002980F2D5
:105A30002781DB689D4206D05A6822F00302911B41
:105A40000F29F3DD60463D69DFF850C265457CD023
:105A50006A6822F00302931B0F2B00F37B81002B5B
:105A6000C7E904CC80F26C81B2F5007F80F01A8126
:105A7000D308796801334FEA521E012202FA0EF26E
:105A80000A4357F833E0C5F808E007EBC3010839CB
:105A9000E9607A6047F83350CEF80C50831001214A
:105AA0009940914257D8114206D120F00300490095
:105AB000114200F10400FAD007EBC0094D468646BA
:105AC000D5F80C80454508D11DE1002B80F22481DA
:105AD000D8F80C80454500F01681D8F8042022F053
:105AE0000302931B0F2BF0DD2046D8E9025408EB8C
:105AF000060146F00106C8F80460EC60A56043F0BA
:105B00000104C7E90411C1E902CC4C6048F8023035
