:020000040800F2
:100000000000022089040008D9040008D90400086F
:10001000D9040008D9040008D90400080000000031
:10002000000000000000000000000000D9040008EB
:10003000D904000800000000D9040008510300089A
:10004000D9040008D9040008D9040008D90400081C
:10005000D9040008D9040008D9040008D90400080C
:10006000D9040008D9040008D9040008D9040008FC
:10007000D9040008D9040008D9040008D9040008EC
:10008000D9040008D9040008D9040008D9040008DC
:10009000D9040008D9040008D9040008D9040008CC
:1000A000D9040008D9040008D9040008D9040008BC
:1000B00081020008D9040008D9040008D904000806
:1000C000D9040008D9040008D9040008D90400089C
:1000D000D9040008D9040008D9040008D90400088C
:1000E000D9040008D9040008D9040008D90400087C
:1000F000D9040008D9040008D9040008D90400086C
:10010000D9040008D9040008D9040008D90400085B
:10011000D9040008D9040008D9040008D90400084B
:10012000D9040008D9040008D9040008D90400083B
:10013000D90400080000000000000000D9040008F5
:10014000D9040008D9040008D9040008D90400081B
:10015000D9040008D9040008D9040008D90400080B
:10016000D9040008D9040008D9040008D9040008FB
:10017000D9040008D9040008D904000800000000D0
:1001800000000000D904000800000000000000008A
:10019000D90400080000000000000000D904000895
:1001A000000000000000000000000000D90400086A
:1001B000D9040008D9040008D9040008D9040008AB
:0401C000D904000856
:1001C40010B5054C237833B9044B13B10448AFF38D
:1001D40000800123237010BD3C04002000000000B7
:1001E400B807000808B5034B1BB103490348AFF334
:1001F400008008BD0000000040040020B80700088B
:10020400A3F5803A704700BF174B002B08BF134B70
:100214009D46FFF7F5FF00218B460F461348144A0D
:10022400121A00F08DF90E4B002B00D098470D4B9D
:10023400002B00D098470020002104000D000D4839
:10024400002802D00C4800F03DFA00F055F92000D7
:10025400290000F0E1F800F03FF900BF00000800B9
:100264000000000000000000000000003C0400202A
:1002740084040020C9060008D50600084FF0804316
:100284001A69D20708D51A69044922F001021A61D1
:100294004B6983F020034B61704700BF00000240AC
:1002A400204B1A6842F001021A601A689207FCD5C2
:1002B4001D4A5A605A681B4922F480025A609A689F
:1002C40042F414429A601A6842F080721A600B6811
:1002D4009801FCD50B6C154A43F080530B641368EA
:1002E40043F4803313605368D903FCD513680F4972
:1002F40043F4003313604B689B03FCD50C4B094A51
:1003040040F205711960936823F0030393609368C6
:1003140043F002039360936803F00C03082BFAD1B3
:10032400704700BF00380240082D000200700040F2
:10033400003C02404FF0E02303490020072298616B
:1003440059611A61704700BF1FBF0200044B1A684D
:1003540012B11A68013A1A605A6801325A60704739
:1003640058040020024A10601368002BFCD1704727
:1003740058040020014B5868704700BF58040020FF
:100384004C080008000000203C0400203C0400202D
:1003940084040020034AD2F8883043F47003C2F87E
:1003A4008830704700ED00E0164A936803F00C03B0
:1003B400042B0CD0082B0CD0134B124A1348926810
:1003C4001349C2F30312825CD3400B607047114B94
:1003D400F3E75368516813F4800F01F03F01536849
:1003E40014BF0C4A084AB2FBF1F1064A5268C2F340
:1003F4000142C3F38813013201FB03F35200B3FB40
:10040400F2F3DAE7003802400024F400F8070008A9
:100414000400002040787D0108B5FFF741FF164A2B
:100424001648116B41F001011163016841F48061C8
:100434000160116C4FF0804341F0010111641A68AE
:1004440042F20F7022F00102002142F227341A60B6
:100454009C62D86259625A69094942F001025A61A0
:10046400DA6842F00102DA601A684FF0805042F014
:1004740001021A600860FEE70038024000000240F2
:1004840000E100E0DFF834D00D480E490E4A0023A5
:1004940002E0D458C4500433C4188C42F9D30B4A34
:1004A4000B4C002301E013600432A242FBD3FFF79C
:1004B40071FF00F021F8FFF7AFFF70470000022042
:1004C400000000203C0400204C0800083C040020EC
:1004D40084040020FEE7000008B50021044600F073
:1004E4008BF8044B1868C36B03B19847204600F09F
:1004F4005FF900BF3408000870B50D4E0D4D761B32
:10050400B61006D0002455F8043B01349847A6429F
:10051400F9D1094E094D761B00F04EF9B61006D0FC
:10052400002455F8043B01349847A642F9D170BD24
:10053400400800084008000848080008400800086F
:10054400830730B548D0541E002A3FD0CAB20346B0
:1005540001E0013C3AD303F8012B9D07F9D1032CA8
:100564002DD9CDB245EA05250F2C45EA054536D9E6
:10057400A4F1100222F00F0C03F1200EE6444FEA1E
:10058400121C03F1100242E9045542E902551032EB
:100594007245F8D10CF1010214F00C0F03EB0212B6
:1005A40004F00F0C13D0ACF1040323F00303043361
:1005B400134442F8045B9342FBD10CF003042CB1C6
:1005C400CAB21C4403F8012B9C42FBD130BD6446E3
:1005D4001346002CF4D1F9E703461446BFE71A4644
:1005E400A446E0E7024B13B1024800F06BB8704731
:1005F40000000000D50600082DE9F84F2F4B2DED23
:10060400028B834618680F4600F082F82C4BD3F80F
:100614000080D8F84861AEB108EE10BA4FF0010975
:100624004FF0000A7468651E0CD4013406EB840490
:1006340087B1D4F80031BB420CD0013D6B1CA4F14E
:100644000404F5D1BDEC028B1C4B1868BDE8F84FCF
:1006540000F066B873682268013BAB420CBF75605A
:10066400C4F800A0002AE8D0D6F88801D6F804B06F
:1006740009FA05F101420BD1904772685A4513D12A
:10068400D8F84831B342D8D01E46002ECAD1D9E793
:10069400D6F88C0101420CD1D4F8801018EE100A5F
:1006A400904772685A45EBD0D8F84861002EB9D10A
:1006B400C8E7D4F880009047DFE700BF3804002083
:1006C40034080008002301461A46184600F02AB8E8
:1006D40038B5084B084D5B1B9C1007D0043B1D44E8
:1006E400013C55F804399847002CF9D1BDE838404D
:1006F40000F068B84C08000848080008704700BFBC
:10070400704700BF704700BF704700BF704700BF0D
:10071400704700BF0120704701207047704700BF39
:10072400704700BF2DE9F047DFF880A00646DAF8ED
:10073400000098460F469146FFF7EAFF1A4B1B68E4
:10074400D3F8484124B365681F2D26DC5EB96B1CC1
:100754000235DAF80000636044F82570FFF7E0FF23
:100764000020BDE8F08704EB85010123C1F88890DF
:10077400D4F88821AB401A43022EC4F88821C1F86A
:100784000881E4D1D4F88C211343C4F88C31DEE71A
:1007940003F5A674C3F84841D5E7DAF80000FFF77B
:1007A400BFFF4FF0FF30DCE73408000838040020B6
:1007B400FEE700BF00000000F8B500BFF8BC08BCAD
:1007C4009E467047F8B500BFF8BC08BC9E4670470B
:1007D4003A3D0A3D0F3D243D323D023D053D133D6A
:1007E4000D3D0C3D233D113D263D013D173D083D8A
:1007F400093D0000000000000000000001020304A5
:100804000607080900000000010203043A3D0A3DFE
:100814000F3D243D323D023D053D133D0D3D0C3D54
:10082400233D113D263D013D173D083D093D000096
:040834001000002090
:08083800CCF9FF7F0100000074
:08084000E9050008E9010008C8
:04084800C5010008DE
:10084C00000000000024F400100000200000000054
:10085C0000000000FC02002064030020CC030020F8
:10086C00000000000000000000000000000000007C
:10087C00000000000000000000000000000000006C
:10088C00000000000000000000000000000000005C
:10089C00000000000000000000000000000000004C
:1008AC00000000000000000000000000000000003C
:1008BC00000000000000000000000000000000002C
:1008CC00000000000000000000000000000000001C
:1008DC00000000000000000000000000000000000C
:1008EC0000000000000000000000000000000000FC
:1008FC0000000000000000000100000000000000EB
:10090C000E33CDAB34126DE6ECDE05000B000000AF
:10091C0000000000000000000000000000000000CB
:10092C0000000000000000000000000000000000BB
:10093C0000000000000000000000000000000000AB
:10094C00000000000000000000000000000000009B
:0C0C7C00000000000000000068040020E0
:040000050800048962
:00000001FF
